:03000000020AF9F8
:0C0AF900787FE4F6D8FD75812602089491
:100A9800EF1FAC0670011E4C600A7D027CEFDCFE85
:040AA800DDFC80EC05
:010AAC002227
:0B0AAD00C2A5C2A78F80120AB8D2A712
:080AB8007F027EEFDEFEDFFC91
:010AC0002213
:080B1A00C2A6120AADC2A72217
:100A6600CFCDCFCECCCE12083F7C007D0A12083FF8
:040A7600ED2430FF3C
:080A7A00D2A6120AADC2A722A8
:100A8200AE07BE0104ED148006BE0209ED243F4408
:060A920080FF120B1A2286
:100AC1007F38120B1A7F0C120B1A7F06120B1A7F3A
:040AD10001020B1AF9
:0A0B1000AC03120A82AF04020A7A55
:060A08008B088A09890A2F
:100A0E00120A82E4FDAB08AA09A90A8D8275830039
:0C0A1E00120800FF6006120A7A0D80E941
:010A2A0022A9
:0C09D5007F0AEA24FFFDE434FFFC7E00F2
:0809E1008E0D8F0E8C0F8D109E
:1009E9007F017E00E4FBEBC39510E50F6480F8748A
:0E09F9008098500AAC0DAD0E12082D0B80E850
:010A070022CC
:040A49008A0A8B0B7F
:100A4D00120A82AA0CEAD39400400D1209D5AC0A01
:080A5D00AD0B120A661A80EDD0
:010A6500226E
:10092A00120A82C3EA64809480400B7F2B120A7AEF
:10093A008A168B17800E7F2D120A7AC3E49BF5174D
:10094A00E49AF516AA15EAD39400400D1209D5AC1B
:09095A0016AD17120A661A80EDB1
:010963002271
:040964008A1A8B1B45
:10096800120A82AA1CEAD3940040297F101209D7E0
:10097800AC1AAD1BCFCDCFCECCCE12083FEF540F63
:10098800FEC3940AEE5004243080022437FF120A72
:040998007A1A80D176
:01099C002238
:04099D008A1F8B2002
:1009A100120A82AA21EAD394004028EA24FFFDE436
:1009B10034FFFC7F027E001209E1AC1FAD20CFCDD8
:1009C100CFCECCCE12083FEF54012430FF120A7A69
:0309D1001A80D2B7
:0109D4002200
:100AE900436C6F636B3A0020203A20203A202000A3
:10089400120AC1120AD57BFF7A0A79E97D017F0128
:1008A400120A087BFF7A0A79F07D017F02120A0896
:1008B400E525FB7A00750C027D017F02120A49E5E9
:1008C40026FB7A00750C027D047F02120A49E52496
:0F08D400FB7A00750C027D077F02120A4980D162
:03000B000208E305
:0408E300C0E0C0D0E1
:1008E700758ACD758CD40523E52370020522C39440
:1008F700E8E522940340277522007523000524E5C7
:1009070024943C40197524000526E526943C400EA6
:0E0917007526000525E525941840037525007A
:05092500D0D0D0E0324B
:100AD5005389F0758ACD758CD4C28DD28CD2A9D2AA
:040AE500AFC2B922C1
:0B0B0500EF1FAC0670011E4C70F622C2
:100A2B00D3EF9400EE940040147D6E7C00ED1D70AE
:0D0A3B00011CED4C70F7EF1F70E61E80E30C
:010A4800228B
:10080000BB010CE58229F582E5833AF583E02250AD
:1008100006E92582F8E622BBFE06E92582F8E222F7
:0D082000E58229F582E5833AF583E4932211
:10082D00EF8DF0A4A8F0CF8CF0A428CE8DF0A42EDF
:02083D00FE2299
:10083F00BC000BBE0029EF8DF084FFADF022E4CC9D
:10084F00F875F008EF2FFFEE33FEEC33FCEE9DEC66
:10085F00984005FCEE9DFE0FD5F0E9E4CEFD22EDAC
:10086F00F8F5F0EE8420D21CFEADF075F008EF2FF6
:10087F00FFED33FD4007985006D5F0F222C398FDE7
:05088F000FD5F0EA2284
:00000001FF
