:03000000020F6E7E
:0C0F6E00787FE4F6D8FD758125020C5355
:0D0F540054656D70657261747572653A00C8
:100C5300120F617FE87E03120F05120F2E7BFF7ABE
:100C63000F79547D017F01120E0D120F61120DE1F8
:100C73008F258E248D238C22E4FFFEFDFCAB25AA59
:100C830024A923A8221209A6501E7B2D7D017F02D1
:100C9300120F85AF25AE24AD23AC22120A138F2584
:100CA3008E248D238C2280097B2B7D017F02120FE2
:100CB30085AF25AE24AD23AC22120A62AB07AA0688
:100CC300750C037D027F02120E4E7B2E7D057F0283
:100CD300120F857F007E407D1C7C46AB25AA24A98C
:100CE30023A822120800120A62E47B107A27F9F87B
:100CF300120BB3750C047D067F02120E4E020C6DAF
:100F0500EF1FAC0670011E4C600A7D027CEFDCFE13
:040F1500DDFC80EC93
:010F190022B5
:0B0F1A00C2A5C2A78F80120F25D2A72E
:080F25007F027EEFDEFEDFFC1F
:010F2D0022A1
:080F8F00C2A6120F1AC2A7222C
:100E8800CFCDCFCECCCE120B227C007D0A120B2206
:040E9800ED2430FF16
:080E9C00D2A6120F1AC2A72210
:100EEF00AE07BE0104ED148006BE0209ED243F4497
:060EFF0080FF120F8F229C
:100F2E007F38120F8F7F0C120F8F7F06120F8F7F5D
:040F3E0001020F8F0E
:0A0F8500AC03120EEFAF04020E9C45
:060E0D008B088A09890A26
:100E1300120EEFE4FDAB08AA09A90A8D82758300BF
:0C0E2300120AE3FF6006120E9C0D80E92D
:010E2F0022A0
:0C0DAE007F0AEA24FFFDE434FFFC7E0015
:080DBA008E0D8F0E8C0F8D10C1
:100DC2007F017E00E4FBEBC39510E50F6480F874AD
:0E0DD2008098500AAC0DAD0E120B100B80E88D
:010DE00022F0
:040E4E008A0A8B0B76
:100E5200120EEFAA0CEAD39400400D120DAEAC0AAA
:080E6200AD0B120E881A80EDA1
:010E6A002265
:100D0300120EEFC3EA64809480400B7F2B120E9C7B
:100D13008A168B17800E7F2D120E9CC3E49BF5174A
:100D2300E49AF516AA15EAD39400400D120DAEAC61
:090D330016AD17120E881A80EDAE
:010D3C002294
:040D3D008A1A8B1B68
:100D4100120EEFAA1CEAD3940040297F10120DB0B5
:100D5100AC1AAD1BCFCDCFCECCCE120B22EF540FA0
:100D6100FEC3940AEE5004243080022437FF120E91
:040D71009C1A80D177
:010D7500225B
:040D76008A1F8B2025
:100D7A00120EEFAA21EAD394004028EA24FFFDE4E8
:100D8A0034FFFC7F027E00120DBAAC1FAD20CFCD1E
:100D9A00CFCECCCE120B22EF54012430FF120E9C80
:030DAA001A80D2DA
:010DAD002223
:0B0F7A00EF1FAC0670011E4C70F62249
:100E3000D3EF9400EE940040147D6E7C00ED1D70A5
:0D0E4000011CED4C70F7EF1F70E61E80E303
:010E4D002282
:0D0F6100120EA47FCC120EBE7F44020EBE05
:100DE100120EA47FCC120EBE7FBE120EBE120E6B6F
:100DF1008F08120E6BEFFEE508FFFDAC06EC120A40
:0B0E010029E4FBFA798078411209090E
:010E0C0022C3
:100EA400D2B7C2B77FF7DFFED2B77F20DFFEA2B78B
:090EB400E433FE7FF7DFFEAF0618
:010EBD002212
:100F4200C2B77E04DEFEEF24FF92B77E18DEFED229
:010F5200B7E7
:010F5300227B
:100ED700C2B77F02DFFED2B77F02DFFEA2B7E433DD
:070EE700FE7F18DFFEAF06DD
:010EEE0022E1
:020EBE00AD077E
:100EC000E4FC7401A804088002C333D8FC5DFF125F
:060ED0000F420CBC08EC0F
:010ED60022F9
:100E6B00E4FDFC120ED7EF600D7401A8040880029C
:0C0E7B00C333D8FC42050CBC08E9AF05ED
:010E87002248
:10080000EC4D6011E8497017ED33EC3304600DE4F2
:10081000FCFFFEFD22E933E8330470F8020ACE1231
:100820000A9958046009E4CC248150062850090232
:100830000AD8284003020AD5C0E0EB4A7044B980C8
:1008400006D0E0FB020AC4EF4E701CBD8008EBFF2F
:10085000EAFEE9FD80EBE98DF0A4FEE5F00208E98F
:10086000E9CDF9EAFEEBFFEF89F0A4FCE5F0CE89D3
:10087000F0A42EFFE435F0CD89F0A42DFEE435F090
:100880008067EF4E7005BD80D780C3EF8BF0A4ACBE
:10089000F0EE8BF0A42CFCE435F0F8EF8AF0A42CF9
:1008A000E5F038FCE433CB8DF0A42CFCE5F03BF80C
:1008B000EE8AF0A42CFCE5F038F8E433CF89F0A4FC
:1008C0002CFCE5F038CF3400CE89F0A42FFFE5F002
:1008D0003EFEE433C98DF0A42EFEE5F039CD8AF05A
:1008E000A42FFFE5F03EFEE43DFD33D0E0FB5007D2
:1008F0000BBB000F020AD8EC2CFCEF33FFEE33FEEB
:06090000ED33FD020AB018
:10090600020AD8EC5D046005E859047003020ACEB9
:10091600120A99580460F6EC4860F2EC7004FDFE89
:10092600FF22C860DB2481C85009C39860025006C4
:10093600020AD59850CAF582E9294B4A7005AB825E
:10094600020AC475F0007C1A7880C3EF9BEE9AED1C
:1009560099400DC3EF9BFFEE9AFEED99FDE842F03C
:10096600DC23ACF0D0E0FFD0E0FED0E0FDAB82208F
:10097600E7101BEB60BAEC2CFCEF33FFEE33FEED19
:1009860033FD020AB0E803F830E705C0F075F00061
:10099600EF2FFFEE33FEED33FD40B830E7C280AAFD
:1009A60074F8CC6480CCC86480C8F582046043C304
:1009B600EB9FF5F0EA9E42F0E99D42F0E89C45F097
:1009C60060305018E5825FFFE582F42B5582FB50BC
:1009D600210ABA001D09B90019088016E5825BFBD9
:1009E600E582F42F5582FF50090EBE00050DBD00AD
:1009F600010CC3EB9FF5F0EA9E42F0E99D42F0E858
:0D0A06009C45F06007CC4820E701B3EC22CE
:100A1300ED33EC33600A047003BD8004ECB2E7FCF1
:010A230022B0
:100A240075F020800E75F010800575F0087D007E4D
:100A3400007F003392D530D503120C45EC334010BF
:100A4400EF33FFEE33FEED33FDEC33FCD5F0ED2256
:0E0A5400E5F0247EA2D513CC92E7CDCEFF2292
:100A6200EDD2E7CD33EC3392D524814006E4FFFE8C
:100A7200FDFC22FCE4CFCECDCC24E0501174FF80EB
:100A8200EDC3CC13CCCD13CDCE13CECF13CF047088
:070A9200F030D5DE020C4537
:100A9900E9D2E7C933E833F892D5EDD2E7CD33ECA3
:070AA90033FC5002B2D5221C
:100AB000EC30E7100FBF000C0EBE00080DBD0004A7
:100AC0000BEB6014A2D5EB13FCED92E7FD2274FF53
:100AD000FCFDFEFF22E480F8A2D574FF13FC7D80AC
:030AE000E480EFC0
:100AE300BB010CE58229F582E5833AF583E02250C8
:100AF30006E92582F8E622BBFE06E92582F8E22212
:0D0B0300E58229F582E5833AF583E493222B
:100B1000EF8DF0A4A8F0CF8CF0A428CE8DF0A42EF9
:020B2000FE22B3
:100B2200BC000BBE0029EF8DF084FFADF022E4CCB7
:100B3200F875F008EF2FFFEE33FEEC33FCEE9DEC80
:100B4200984005FCEE9DFE0FD5F0E9E4CEFD22EDC6
:100B5200F8F5F0EE8420D21CFEADF075F008EF2F10
:100B6200FFED33FD4007985006D5F0F222C398FD01
:050B72000FD5F0EA229E
:100B770075F008758200EF2FFFEE33FECD33CDCC35
:100B870033CCC58233C5829BED9AEC99E5829840B8
:100B97000CF582EE9BFEED9AFDEC99FC0FD5F0D695
:100BA700E4CEFBE4CDFAE4CCF9A88222B800C1B9BF
:100BB7000059BA002DEC8BF084CFCECDFCE5F0CBFD
:100BC700F97818EF2FFFEE33FEED33FDEC33FCEB36
:100BD70033FB10D703994004EB99FB0FD8E5E4F9F1
:100BE700FA227818EF2FFFEE33FEED33FDEC33FCDE
:100BF700C933C910D7059BE99A4007EC9BFCE99AD2
:100C0700F90FD8E0E4C9FAE4CCFB2275F010EF2F16
:100C1700FFEE33FEED33FDCC33CCC833C810D70716
:100C27009BEC9AE899400AED9BFDEC9AFCE899F851
:0E0C37000FD5F0DAE4CDFBE4CCFAE4C8F922E4
:0E0C4500C3E49FFFE49EFEE49DFDE49CFC22C0
:00000001FF
