:03000000020C46A9
:0C0C4600787FE4F6D8FD75812B0209E0F0
:100B5400414444522020434D4420204E554D003002
:0E0B6400302020202030302020203030300083
:1009E000120C087BFF7A0B79547D017F01120B31C9
:1009F0007BFF7A0B79637D017F02120B31120C8928
:100A0000120C2CEF7006120C39EF60F4120C8F8F61
:100A10002B120C928F2AE52BFB7A007518027D01B0
:100A20007F02120A8DE52AFB7A007518027D0C7F81
:100A300002120A8DE52AB415021529E52AB4090225
:100A40000529E529FB7A007518037D077F02120B43
:030A50009080ADE6
:100BDF00EF1FAC0670011E4C600A7D027CEFDCFE3D
:040BEF00DDFC80ECBD
:010BF30022DF
:0B0BF400C2A5C2A78F80120BFFD2A782
:080BFF007F027EEFDEFEDFFC49
:010C070022CA
:080C7B00C2A6120BF4C2A7226D
:100BAD00CFCDCFCECCCE12098B7C007D0A12098B16
:040BBD00ED2430FFF4
:080BC100D2A6120BF4C2A72218
:100BC900AE07BE0104ED148006BE0209ED243F44C0
:060BD90080FF120C7B22DC
:100C08007F38120C7B7F0C120C7B7F06120C7B7FCB
:040C180001020C7B4E
:0A0C6800AC03120BC9AF04020BC16C
:060B31008B148A158916E1
:100B3700120BC9E4FDAB14AA15A9168D82758300A3
:0C0B470012094CFF6006120BC10D80E982
:010B5300227F
:0C0AFE007F0AEA24FFFDE434FFFC7E00C8
:080B0A008E198F1A8C1B8D1C43
:100B12007F017E00E4FBEBC3951CE51B6480F87447
:0E0B22008098500AAC19AD1A1209790B80E8C0
:010B300022A2
:040B90008A168B171F
:100B9400120BC9AA18EAD39400400D120AFEAC162F
:080BA400AD17120BAD1A80ED34
:010BAC002226
:100A5300120BC9C3EA64809480400B7F2B120BC135
:100A63008A228B23800E7F2D120BC1C3E49BF523B7
:100A7300E49AF522AA21EAD39400400D120AFEACAF
:090A830022AD23120BAD1A80ED27
:010A8C002247
:040A8D008A168B1723
:100A9100120BC9AA18EAD3940040297F10120B0047
:100AA100AC16AD17CFCDCFCECCCE12098BEF540FF4
:100AB100FEC3940AEE5004243080022437FF120B47
:040AC100C11A80D105
:010AC500220E
:040AC6008A268B27CA
:100ACA00120BC9AA28EAD394004028EA24FFFDE4BD
:100ADA0034FFFC7F027E00120B0AAC26AD27CFCD75
:100AEA00CFCECCCE12098BEF54012430FF120BC1AA
:030AFA001A80D28D
:010AFD0022D6
:0B0C5200EF1FAC0670011E4C70F62274
:100B7200D3EF9400EE940040147D6E7C00ED1D7066
:0D0B8200011CED4C70F7EF1F70E61E80E3C4
:010B8F002243
:100C1C005389F0438901E4F58AF58CC28DC28C228C
:0B0C5D00AD07AC068C8CAF058F8A221F
:090C7200AF8CEFFEAD8AEDFF220C
:060C8300EF24FF928C2219
:060C8900120C1C02000029
:0D0C2C00E50F6006E4F50F7F01227F002236
:0D0C3900E50D6006E4F50D7F01227F00222D
:030C8F00AF0C2285
:030C9200AF0B2283
:03000300020800F0
:10080000C0E0C0F0C083C082C0D075D000C000C0BE
:1008100001C002C003C004C005C006C007E50870DF
:100820000CFFFE120C5D7F01120C838049E5086409
:10083000017049120C728E098F0AE4FFFE120C5DE2
:10084000D3E50A94A6E509942E4010E50A948EE5B6
:100850000994325006750802020931D3E50A948CD6
:10086000E50994264010E50A9474E509942A500697
:10087000750D01020929750801020931E5086402B4
:100880006003020931120C728E098F0AE4FFFE1216
:100890000C5DD3E50A9414E5099402402CE50A9412
:1008A000FCE50994055022E50E131313541F241080
:1008B000F8C000E6FFE50E5407FE7401A8060880A4
:1008C00002C333D8FCF45F8034D3E50A9426E509EB
:1008D00094064030E50A940EE509940A5026E50E88
:1008E000131313541F2410F8C000E6FFE50E54073D
:1008F000FE7401A806088002C333D8FC4FD000F66E
:10090000050E8006750E00750801E50EC3942040A3
:1009100020750E00E511F4B5100FE513F4B51209BA
:1009200085100C85120B750F01E4FF120C837508FE
:1009300000D007D006D005D004D003D002D001D01B
:0C09400000D0D0D082D083D0F0D0E032C4
:10094C00BB010CE58229F582E5833AF583E0225060
:10095C0006E92582F8E622BBFE06E92582F8E222AA
:0D096C00E58229F582E5833AF583E49322C4
:10097900EF8DF0A4A8F0CF8CF0A428CE8DF0A42E92
:02098900FE224C
:10098B00BC000BBE0029EF8DF084FFADF022E4CC50
:10099B00F875F008EF2FFFEE33FEEC33FCEE9DEC19
:1009AB00984005FCEE9DFE0FD5F0E9E4CEFD22ED5F
:1009BB00F8F5F0EE8420D21CFEADF075F008EF2FA9
:1009CB00FFED33FD4007985006D5F0F222C398FD9A
:0509DB000FD5F0EA2237
:00000001FF
