:03000000020800F3
:0C080000787FE4F6D8FD758116020847E9
:1009BF00EF1FAC0670011E4C600A7D027CEFDCFE5F
:0409CF00DDFC80ECDF
:0109D3002201
:1008F900E4F51620B1137F14FE1209BF30B1FD7F54
:10090900147E001209BF75160120B0147F147E00F1
:100919001209BF30B0FD7F147E001209BF7516029F
:1009290020B2147F147E001209BF30B2FD7F147EFD
:10093900001209BF75160320B3147F147E00120933
:10094900BF30B3FD7F147E001209BF751604AF16C0
:01095900227B
:10095A001209D41208F98F14E514640170230515DD
:10096A00531503E5157002F513E515B40103751364
:10097A001EE515B4020375133CE515B4030375139C
:0D098A0064E515FD7C007F0112088C80C61D
:03000B0002099750
:10099700C0E0C0D0758AAE758CFB0512E512C39412
:1009A700644003751200E512C395135004D290807A
:0809B70002C290D0D0D0E03262
:0C09E8000A083F065B4F666D7D077F6FBD
:10088C00EF14B4080050549008A175F003A4C5836C
:10089C0025F0C583730208B90208BD0208C102081D
:1008AC00C50208C90208D10208D90208E1D2A48005
:1008BC000ED2A48012D2A48016D2A4801AC2A4D2C2
:1008CC00A3D2A28016C2A4D2A3C2A2800EC2A4C27A
:1008DC00A3D2A28006C2A4C2A3C2A274082DF8E6B9
:0D08EC00F5807F017E001209BFE4F5802237
:1009D4005389F0758AAE758CFBC28DD28CD2A9D2A4
:0409E400AFC2B922C3
:10080C0002095AE493A3F8E493A34003F68001F29F
:10081C0008DFF48029E493A3F85407240CC8C333ED
:10082C00C4540F4420C8834004F456800146F6DFBC
:10083C00E4800B01020408102040809009E8E47E5B
:10084C00019360BCA3FF543F30E509541FFEE493B1
:10085C00A360010ECF54C025E060A840B8E493A378
:10086C00FAE493A3F8E493A3C8C582C8CAC583CAA3
:10087C00F0A3C8C582C8CAC583CADFE9DEE780BE5B
:0109F4000002
:00000001FF
