:030000000208BC37
:0C08BC00787FE4F6D8FD75810A02080080
:10088F003C42A98585A9423C3C42A18585A1423CB9
:08089F003C42A58989A5423CF9
:10080000E4F509F50A1208C8E4F508E50825099099
:10081000088F93FD7C00AF0812086D0508E508C33A
:10082000940840E7050AE50AD3940F40DBE4F50A93
:1008300074082509F509D3941040CDE4F50980C862
:02084000AD0702
:10084200E4FB74807E00A803088006CEA2E713CEE4
:1008520013D8F8FFEDF582EF558224FF92B4D2B699
:0A086200C2B60BBB08DCD2B5C2B56C
:01086C002269
:0508C800C2B6C2B5221A
:10086D00AA07AF05120840AF027480A807088002DE
:10087D00C313D8FCF4F5807F017E001208A77580A4
:02088D00FF2248
:1008A700EF1FAC0670011E4C600A7D027CEFDCFE78
:0408B700DDFC80ECF8
:0108BB00221A
:00000001FF
