:03000000020800F3
:0C080000787FE4F6D8FD758115020847EA
:1009B300EF1FAC0670011E4C600A7D027CEFDCFE6B
:0409C300DDFC80ECEB
:0109C700220D
:1008F900E4F51520B1137F14FE1209B330B1FD7F61
:10090900147E001209B375150120B0147F147E00FE
:100919001209B330B0FD7F147E001209B3751502B8
:1009290020B2147F147E001209B330B2FD7F147E09
:10093900001209B375150320B3147F147E00120940
:10094900B330B3FD7F147E001209B3751504AF15DA
:01095900227B
:10095A001209C8E4F5148514137F0A7E001209B33C
:10096A000514E514C3946440ED751464E514D39436
:10097A000040E08514137F0A7E001209B315148023
:01098A00EB81
:03000B0002098B5C
:10098B00C0E0C0D0758AAE758CFB0512E512C3941E
:10099B00644003751200E512C395135004D2A18075
:0809AB0002C2A1D0D0D0E0325D
:0C09DC000A083F065B4F666D7D077F6FC9
:10088C00EF14B4080050549008A175F003A4C5836C
:10089C0025F0C583730208B90208BD0208C102081D
:1008AC00C50208C90208D10208D90208E1D2A48005
:1008BC000ED2A48012D2A48016D2A4801AC2A4D2C2
:1008CC00A3D2A28016C2A4D2A3C2A2800EC2A4C27A
:1008DC00A3D2A28006C2A4C2A3C2A274082DF8E6B9
:0D08EC00F5807F017E001209B3E4F5802243
:1009C8005389F0758AAE758CFBC28DD28CD2A9D2B0
:0409D800AFC2B922CF
:10080C0002095AE493A3F8E493A34003F68001F29F
:10081C0008DFF48029E493A3F85407240CC8C333ED
:10082C00C4540F4420C8834004F456800146F6DFBC
:10083C00E4800B01020408102040809009DCE47E67
:10084C00019360BCA3FF543F30E509541FFEE493B1
:10085C00A360010ECF54C025E060A840B8E493A378
:10086C00FAE493A3F8E493A3C8C582C8CAC583CAA3
:10087C00F0A3C8C582C8CAC583CADFE9DEE780BE5B
:0109E800000E
:00000001FF
