:0300000002094CA6
:0C094C00787FE4F6D8FD75812202099343
:100B4B00EF1FAC0670011E4C600A7D027CEFDCFED1
:040B5B00DDFC80EC51
:010B5F002273
:100AA800E4F52220B1137F14FE120B4B30B1FD7F09
:100AB800147E00120B4B75220120B0147F147E00A7
:100AC800120B4B30B0FD7F147E00120B4B752202C7
:100AD80020B2147F147E00120B4B30B2FD7F147EBF
:100AE80000120B4B75220320B3147F147E00120BE7
:100AF8004B30B3FD7F147E00120B4B752204AF22DE
:010B080022CA
:100A4500120BC8120BB6120B7DEF604B120BC58F44
:100A55001EE51EB41603E4F51FE51EB40C03751F51
:100A650001E51EB41803751F02E51EB45E03751F6C
:100A750003E51F7004FF120BCBE51FB401057F32A0
:100A8500120BCBE51FB402057F4B120BCBE51FB450
:100A950003057F64120BCBE51FFD7C007F01120966
:030AA500D880A353
:0C0B70000A143F065B4F666D7D077F6F27
:1009D800EF14B4080050549009ED75F003A4C583D2
:1009E80025F0C58373020A05020A09020A0D020AE4
:1009F80011020A15020A1D020A25020A2DD2A48034
:100A08000ED2A48012D2A48016D2A4801AC2A4D274
:100A1800A3D2A28016C2A4D2A3C2A2800EC2A4C22C
:100A2800A3D2A28006C2A4C2A3C2A274142DF8E65F
:0D0A3800F5807F017E00120B4BE4F580225B
:100B340053890F438910758B9C758DFFC28FD28E9C
:070B4400D2ABD2AFC2BB220D
:0B0B9700D288C289D2A8D2AFD2B82207
:060BB600120B60020B9718
:0D0B7D00E50F6006E4F50F7F01227F0022E6
:0D0B8A00E50D6006E4F50D7F01227F0022DD
:030BC200AF0C2253
:030BC500AF0B2251
:03000300020800F0
:10080000C0E0C0F0C083C082C0D075D000C000C0BE
:1008100001C002C003C004C005C006C007E50870DF
:100820000CFFFE120BA27F01120BBC8049E508648D
:10083000017049120BAD8E098F0AE4FFFE120BA264
:10084000D3E50A94A6E509942E4010E50A948EE5B6
:100850000994325006750802020931D3E50A948CD6
:10086000E50994264010E50A9474E509942A500697
:10087000750D01020929750801020931E5086402B4
:100880006003020931120BAD8E098F0AE4FFFE12DC
:100890000BA2D3E50A9414E5099402402CE50A94CE
:1008A000FCE50994055022E50E131313541F241080
:1008B000F8C000E6FFE50E5407FE7401A8060880A4
:1008C00002C333D8FCF45F8034D3E50A9426E509EB
:1008D00094064030E50A940EE509940A5026E50E88
:1008E000131313541F2410F8C000E6FFE50E54073D
:1008F000FE7401A806088002C333D8FC4FD000F66E
:10090000050E8006750E00750801E50EC3942040A3
:1009100020750E00E511F4B5100FE513F4B51209BA
:1009200085100C85120B750F01E4FF120BBC7508C6
:1009300000D007D006D005D004D003D002D001D01B
:0C09400000D0D0D082D083D0F0D0E032C4
:100B60005389F0438901E4F58AF58CC28DC28C2249
:0B0BA200AD07AC068C8CAF058F8A22DB
:090BAD00AF8CEFFEAD8AEDFF22D2
:060BBC00EF24FF928C22E1
:030BC800020B34E9
:030BCB008F202256
:03001B00020B09CC
:100B0900C0E0C0F0C0D0758B9C758DFF0521E52133
:100B190075F0648485F021E521C395205004D290B5
:0B0B29008002C290D0D0D0F0D0E032AB
:10095800020A45E493A3F8E493A34003F68001F266
:1009680008DFF48029E493A3F85407240CC8C333A0
:10097800C4540F4420C8834004F456800146F6DF6F
:10098800E4800B0102040810204080900B70E47E84
:10099800019360BCA3FF543F30E509541FFEE49364
:1009A800A360010ECF54C025E060A840B8E493A32B
:1009B800FAE493A3F8E493A3C8C582C8CAC583CA56
:1009C800F0A3C8C582C8CAC583CADFE9DEE780BE0E
:010B7C000078
:00000001FF
