:030000000208E70C
:0C08E700787FE4F6D8FD75812E02092E02
:10080000120BC3120C068F28E528B4010CE52770E3
:10081000047F0180027F008F27E528B40207E4F5FA
:1008200025F524F526E52864037033E525FD7C00D5
:10083000E4FF120B1E7F057E00120BAEE524FD7C4B
:10084000007F01120B1E7F057E00120BAEE526FD18
:100850007C007F02120B1E7F057E00120BAEE52886
:10086000B40415E4FF120A9E8F257F01120A9E8FA1
:10087000247F02120A9E8F26E52575F00A84FD7CEE
:10088000007F01120BEDE52575F00A84E5F0FD7C93
:10089000007F02120BED7D0B7C007F03120BEDE558
:1008A0002475F00A84FD7C007F04120BEDE52475AD
:1008B000F00A84E5F0FD7C007F05120BED7D0B7CDA
:1008C000007F06120BEDE52675F00A84FD7C007FA3
:1008D00007120BEDE52675F00A84E5F0FD7C007F3C
:0708E00008120BED020803F2
:100AF700E52760220526E526C394644019E4F52618
:100B07000524E524943C400EE4F5240525E52594C9
:070B17003C4003E4F5252238
:03000B0002097374
:10097300C0E0C0F0C083C082C0D075D000C000C04A
:0D09830001C002C003C004C005C006C007CB
:10099000758ACD758CD4051FE51F7002051EC394A2
:1009A00014E51E94004009751E00751F00120A65AB
:1009B0000521E52170020520C39402E52094004042
:1009C00009752000752100120B7D0523E5237002B7
:1009D0000522C3940AE5229400400975220075237C
:0409E00000120AF700
:1009E400D007D006D005D004D003D002D001D00067
:0B09F400D0D0D082D083D0F0D0E03211
:100BAE00EF1FAC0670011E4C600A7D027CEFDCFE6E
:040BBE00DDFC80ECEE
:010BC2002210
:050C0600AF2BE4F52B0B
:010C0B0022C6
:100B9800E4FF20B1010F20B0027F0220B2027F03E0
:050BA80020B3027F04F0
:010BAD002225
:100A650085292A120B988F29E52AB40107E52970F3
:100A750003752B01E52AB40207E5297003752B02DE
:100A8500E52AB40307E5297003752B03E52AB404A9
:080A950007E5297003752B042D
:010A9D002236
:100B60000909000A0A0A0A0A0A0A0A0C123F065B65
:0C0B70004F666D7D077F6F00400108019B
:090BED00AE0574092FF8A60622DA
:1009FF00E4F580EF14B408005054900A1775F00313
:100A0F00A4C58325F0C58373020A2F020A33020A95
:100A1F0037020A3B020A3F020A47020A4F020A57ED
:100A2F00D2A4800ED2A48012D2A48016D2A4801A8F
:100A3F00C2A4D2A3D2A28016C2A4D2A3C2A2800EF5
:100A4F00C2A4C2A3D2A28006C2A4C2A3C2A274121D
:060A5F002DF8E6F58022EF
:100B7D0074092508F8E6FD7C00AF081209FF050889
:0A0B8D00E508C39409400375080150
:010B9700223B
:100BC3005389F0758ACD758CD4C28DD28CD2A9D2BB
:040BD300AFC2B922D2
:090BF600D2A1D2A0C2A0C2A1222A
:070BFF00C2A0D2A1D2A02286
:020ACE00AD0772
:100AD000E4FB74807E00A803088006CEA2E713CE54
:100AE00013D8F8FFEDF582EF558224FF92A0D2A132
:060AF000C2A10BBB08DCF3
:010AF60022DD
:100B4200E4FFD2A0FED2A130A00D7480A8060880D6
:0D0B520002C313D8FC4207C2A10EBE08E882
:010B5F002273
:0A0BE300EF24FF92A0D2A1C2A122CC
:0B0BD700D2A0D2A1A2A0E433FFC2A173
:010BE20022F0
:100B1E008F2C8C2D8D2E120BF67FA0120ACE120B5F
:100B2E00D7AF2C120ACE120BD7AF2E120ACE120B43
:040B3E00D7020BFFD0
:020A9E008F2C9B
:100AA000120BF67FA0120ACE120BD7AF2C120ACE71
:100AB000120BD7120BF67FA1120ACE120BD7120B14
:0D0AC000428F2D7F01120BE3120BFFAF2DB3
:010ACD002206
:1008F300020800E493A3F8E493A34003F68001F213
:1009030008DFF48029E493A3F85407240CC8C33305
:10091300C4540F4420C8834004F456800146F6DFD4
:10092300E4800B0102040810204080900B60E47EF9
:10093300019360BCA3FF543F30E509541FFEE493C9
:10094300A360010ECF54C025E060A840B8E493A390
:10095300FAE493A3F8E493A3C8C582C8CAC583CABB
:10096300F0A3C8C582C8CAC583CADFE9DEE780BE73
:010B7C000078
:00000001FF
