:03000000020BE010
:0C0BE000787FE4F6D8FD758125020B77C4
:100B7700120BBD1208008F25E52560F7FB7A00757B
:0B0B87000C027D017F02120B5A80E877
:060BD100C2A58F80D2A72F
:080BD7007F027EEFDEFEDFFC71
:010BDF0022F3
:0A0BF700C2A6120BD1C2A7020BD751
:100B1E00CFCDCFCECCCE1209C87C007D0A1209C82B
:040B2E00ED2430FF83
:0A0B3200D2A6120BD1C2A7020BD706
:100B9200AE07BE0104ED148006BE0209ED243F44F7
:060BA20080FF120BF72298
:100BBD007F38120BF77F0C120BF77F06120BF77FA6
:040BCD0001020BF71F
:0A0C0100AC03120B92AF04020B3299
:060AFB008B228A238924EE
:100B0100120B92E4FDAB22AA23A9248D82758300E6
:0C0B1100120989FF6006120B320D80E90A
:010B1D0022B5
:0C0AC8007F0AEA24FFFDE434FFFC7E00FE
:080AD4008E0D8F0E8C0F8D10AA
:100ADC007F017E00E4FBEBC39510E50F6480F87496
:0E0AEC008098500AAC0DAD0E1209B60B80E8D2
:010AFA0022D9
:040B5A008A0A8B0B6D
:100B5E00120B92AA0CEAD39400400D120AC8AC0AEA
:080B6E00AD0B120B1E1A80ED05
:010B7600225C
:100A1D00120B92C3EA64809480400B7F2B120B3231
:100A2D008A168B17800E7F2D120B32C3E49BF517A0
:100A3D00E49AF516AA15EAD39400400D120AC8AC33
:090A4D0016AD17120B1E1A80ED04
:010A5600227D
:040A57008A1A8B1B51
:100A5B00120B92AA1CEAD3940040297F10120ACAE7
:100A6B00AC1AAD1BCFCDCFCECCCE1209C8EF540FE5
:100A7B00FEC3940AEE5004243080022437FF120B7D
:040A8B00321A80D1CA
:010A8F002244
:040A90008A1F8B200E
:100A9400120B92AA21EAD394004028EA24FFFDE431
:100AA40034FFFC7F027E00120AD4AC1FAD20CFCDF0
:100AB400CFCECCCE1209C8EF54012430FF120B3232
:030AC4001A80D2C3
:010AC700220C
:0B0BEC00EF1FAC0670011E4C70F622DB
:100B3C00D3EF9400EE940040147D6E7C00ED1D709C
:0D0B4C00011CED4C70F7EF1F70E61E80E3FA
:010B59002279
:10080000E4F5087590FFC2932097137F14FE120B36
:10081000A83097FD7F147E00120BA8750801209662
:10082000147F147E00120BA83096FD7F147E0012F8
:100830000BA87508052095147F147E00120BA830B4
:1008400095FD7F147E00120BA87508092094147F73
:10085000147E00120BA83094FD7F147E00120BA8AA
:1008600075080D7590FFC2922097147F147E0012B8
:100870000BA83097FD7F147E00120BA8750802208C
:1008800096147F147E00120BA83096FD7F147E0014
:10089000120BA87508062095147F147E00120BA871
:1008A0003095FD7F147E00120BA875080A20941461
:1008B0007F147E00120BA83094FD7F147E00120B73
:1008C000A875080E7590FFC2912097147F147E00C2
:1008D000120BA83097FD7F147E00120BA875080339
:1008E0002096147F147E00120BA83096FD7F147E94
:1008F00000120BA87508072095147F147E00120BB8
:10090000A83095FD7F147E00120BA875080B20946B
:10091000147F147E00120BA83094FD7F147E001209
:100920000BA875080F7590FFC2902097147F147E56
:1009300000120BA83097FD7F147E00120BA87508DB
:10094000042096147F147E00120BA83096FD7F14AD
:100950007E00120BA87508082095147F147E0012E3
:100960000BA83095FD7F147E00120BA875080C2093
:1009700094147F147E00120BA83094FD7F147E0027
:08098000120BA8750810AF0866
:01098800224C
:100BA800EF1FAC0670011E4C600A7D027CEFDCFE74
:040BB800DDFC80ECF4
:010BBC002216
:10098900BB010CE58229F582E5833AF583E0225023
:1009990006E92582F8E622BBFE06E92582F8E2226D
:0D09A900E58229F582E5833AF583E4932287
:1009B600EF8DF0A4A8F0CF8CF0A428CE8DF0A42E55
:0209C600FE220F
:1009C800BC000BBE0029EF8DF084FFADF022E4CC13
:1009D800F875F008EF2FFFEE33FEEC33FCEE9DECDC
:1009E800984005FCEE9DFE0FD5F0E9E4CEFD22ED22
:1009F800F8F5F0EE8420D21CFEADF075F008EF2F6C
:100A0800FFED33FD4007985006D5F0F222C398FD5C
:050A18000FD5F0EA22F9
:00000001FF
