:030000000209549E
:0C095400787FE4F6D8FD75810C0208B82D
:10092800776569206B656B65207362210030313211
:0809380033343536373839003D
:1008B8001209407BFF7A097928E4FDFF1208007BC2
:0E08C800FF7A0979357D01E4FF12080080FEF9
:0B096000EF1FAC0670011E4C70F62269
:1008D600D3EF9400EE940040147D6E7C00ED1D7005
:0D08E600011CED4C70F7EF1F70E61E80E363
:0108F30022E2
:1008F400C2A6C2A5C2A78F807F017E001208D6D2ED
:0B090400A77F017E001208D6C2A722C8
:0A089300AB09AA0AA90B12090FFF16
:10089D00D2A6C2A5C2A78F807F017E001208D6D234
:0B08AD00A77F017E001208D6C2A72220
:100940007F381208F47F0C1208F47F061208F47F37
:04095000010208F4A4
:05096B007F010208F409
:080800008F088B098A0A890B9D
:10080800E4F50CEDD394014003020892E508940F37
:100818005078EDC394015039AB09AA0AA90B120903
:100828000F6067C374109508FFE50CC39FE50C5073
:1008380006248025088004250824B0FF1208F41235
:1008480008937401250BF50BE4350AF50A050C80AD
:10085800C7AB09AA0AA90B12090F602EC374109519
:1008680008FFE50CC39FE50C500624C0250880044A
:1008780025082470FF1208F41208937401250BF55B
:0A0888000BE4350AF50A050C80C7E1
:010892002243
:10090F00BB010689828A83E0225002E722BBFE02E6
:09091F00E32289828A83E4932219
:00000001FF
