:03000000020C34BB
:0C0C3400787FE4F6D8FD758124020800EA
:100BF700EF1FAC0670011E4C600A7D027CEFDCFE25
:040C0700DDFC80ECA4
:010C0B0022C6
:10097300E4F50820B1137F14FE120BF730B1FD7FAD
:10098300147E00120BF775080120B0147F147E004B
:10099300120BF730B0FD7F147E00120BF7750802BF
:1009A30020B2147F147E00120BF730B2FD7F147E49
:1009B30000120BF775080320B3147F147E00120B8B
:1009C300F730B3FD7F147E00120BF7750804AF08F0
:0109D3002201
:0B0C0C00C2A5C2A78F80120C17D2A750
:080C17007F027EEFDEFEDFFC30
:010C1F0022B2
:080C7400C2A6120C0CC2A7225B
:100BAB00CFCDCFCECCCE12091E7C007D0A12091EF2
:040BBB00ED2430FFF6
:080BBF00D2A6120C0CC2A72201
:100BE100AE07BE0104ED148006BE0209ED243F44A8
:060BF10080FF120C7422CB
:100C20007F38120C747F0C120C747F06120C747FC8
:040C300001020C743D
:0A0C5700AC03120BE1AF04020BBF67
:060B2F008B088A09890A07
:100B3500120BE1E4FDAB08AA09A90A8D82758300B1
:0C0B45001208DFFF6006120BBF0D80E9F4
:010B51002281
:0C0A7F007F0AEA24FFFDE434FFFC7E0047
:080A8B008E0D8F0E8C0F8D10F3
:100A93007F017E00E4FBEBC39510E50F6480F874DF
:0E0AA3008098500AAC0DAD0E12090C0B80E8C5
:010AB1002222
:040B8E008A0A8B0B39
:100B9200120BE1AA0CEAD39400400D120A7FAC0AB0
:080BA200AD0B120BAB1A80ED44
:010BAA002228
:1009D400120BE1C3EA64809480400B7F2B120BBF9F
:1009E4008A168B17800E7F2D120BBFC3E49BF5175D
:1009F400E49AF516AA15EAD39400400D120A7FACC6
:090A040016AD17120BAB1A80EDC0
:010A0D0022C6
:040A0E008A1A8B1B9A
:100A1200120BE1AA1CEAD3940040297F10120A812A
:100A2200AC1AAD1BCFCDCFCECCCE12091EEF540FD8
:100A3200FEC3940AEE5004243080022437FF120BC6
:040A4200BF1A80D186
:010A4600228D
:040A47008A1F8B2057
:100A4B00120BE1AA21EAD394004028EA24FFFDE42B
:100A5B0034FFFC7F027E00120A8BAC1FAD20CFCD82
:100A6B00CFCECCCE12091EEF54012430FF120BBF98
:030A7B001A80D20C
:010A7E002255
:100BC7005772697465206F6B002020202020202039
:0A0BD700200052656164206F6B007E
:10080000120C20750C05AB23AA227D017F01120B6F
:100810008E1209738F24E524B401150523E5237096
:10082000020522750C05FBAA227D017F01120B8EA9
:10083000E524B40216E523152370021522750C0574
:10084000AB23AA227D017F01120B8EE52464037085
:1008500040FCAD23FF120B0B7F057E00120BF7E56A
:1008600022FD7C007F01120B0B7F057E00120BF72F
:100870007BFF7A0B79C77D017F02120B2F7FE87E09
:1008800003120BF77BFF7A0B79D07D017F02120BED
:100890002FE52464046003020811FF120AB27522D6
:1008A000008F237F01120AB2EFFEEE4222750C0583
:1008B000AB23AA227D017F01120B8E7BFF7A0B797D
:1008C000D97D017F02120B2F7FE87E03120BF77B8D
:0F08D000FF7A0B79D07D017F02120B2F020811E6
:0B0C4C00EF1FAC0670011E4C70F6227A
:100B5200D3EF9400EE940040147D6E7C00ED1D7086
:0D0B6200011CED4C70F7EF1F70E61E80E3E4
:010B6F002263
:100B0B008F088C098D0A120C6B7FA0120AE2120C53
:100B1B0040AF08120AE2120C40AF0A120AE2120CA2
:040B2B0040020C7CFC
:020AB2008F08AB
:100AB400120C6B7FA0120AE2120C40AF08120AE279
:100AC400120C40120C6B7FA1120AE2120C40120BA2
:0D0AD400708F097F01120C61120C7CAF09BC
:010AE10022F2
:090C6B00D2A1D2A0C2A0C2A122B4
:070C7C00C2A0D2A1D2A02208
:020AE200AD075E
:100AE400E4FB74807E00A803088006CEA2E713CE40
:100AF40013D8F8FFEDF582EF558224FF92A0D2A11E
:060B0400C2A10BBB08DCDE
:010B0A0022C8
:100B7000E4FFD2A0FED2A130A00D7480A8060880A8
:0D0B800002C313D8FC4207C2A10EBE08E854
:010B8D002245
:0A0C6100EF24FF92A0D2A1C2A1224D
:0B0C4000D2A0D2A1A2A0E433FFC2A109
:010C4B002286
:1008DF00BB010CE58229F582E5833AF583E02250CE
:1008EF0006E92582F8E622BBFE06E92582F8E22218
:0D08FF00E58229F582E5833AF583E4932232
:10090C00EF8DF0A4A8F0CF8CF0A428CE8DF0A42EFF
:02091C00FE22B9
:10091E00BC000BBE0029EF8DF084FFADF022E4CCBD
:10092E00F875F008EF2FFFEE33FEEC33FCEE9DEC86
:10093E00984005FCEE9DFE0FD5F0E9E4CEFD22EDCC
:10094E00F8F5F0EE8420D21CFEADF075F008EF2F16
:10095E00FFED33FD4007985006D5F0F222C398FD07
:05096E000FD5F0EA22A4
:00000001FF
