:03000000020CCB24
:0C0CCB00787FE4F6D8FD758126020989C7
:100C8E00EF1FAC0670011E4C600A7D027CEFDCFE8D
:040C9E00DDFC80EC0D
:010CA200222F
:0B0CA300C2A5C2A78F80120CAED2A722
:080CAE007F027EEFDEFEDFFC99
:010CB600221B
:080CEC00C2A6120CA3C2A7224C
:100C5C00CFCDCFCECCCE120AA47C007D0A120AA432
:040C6C00ED2430FF44
:080C7000D2A6120CA3C2A722B8
:100C7800AE07BE0104ED148006BE0209ED243F4410
:060C880080FF120CEC22BB
:100CB7007F38120CEC7F0C120CEC7F06120CEC7FC9
:040CC70001020CEC2E
:0A0CE200AC03120C78AF04020C7092
:060BFE008B088A09890A38
:100C0400120C78E4FDAB08AA09A90A8D8275830049
:0C0C1400120A65FF6006120C700D80E9EA
:010C200022B1
:0C0BA4007F0AEA24FFFDE434FFFC7E0021
:080BB0008E0D8F0E8C0F8D10CD
:100BB8007F017E00E4FBEBC39510E50F6480F874B9
:0E0BC8008098500AAC0DAD0E120A920B80E818
:010BD60022FC
:040C3F008A0A8B0B87
:100C4300120C78AA0CEAD39400400D120BA4AC0A40
:080C5300AD0B120C5C1A80EDE0
:010C5B002276
:100AF900120C78C3EA64809480400B7F2B120C702F
:100B09008A168B17800E7F2D120C70C3E49BF51784
:100B1900E49AF516AA15EAD39400400D120BA4AC79
:090B290016AD17120C5C1A80EDE8
:010B320022A0
:040B33008A1A8B1B74
:100B3700120C78AA1CEAD3940040297F10120BA646
:100B4700AC1AAD1BCFCDCFCECCCE120AA4EF540F2B
:100B5700FEC3940AEE5004243080022437FF120C9F
:040B6700701A80D1AF
:010B6B002267
:040B6C008A1F8B2031
:100B7000120C78AA21EAD394004028EA24FFFDE46D
:100B800034FFFC7F027E00120BB0AC1FAD20CFCD36
:100B9000CFCECCCE120AA4EF54012430FF120C7039
:030BA0001A80D2E6
:010BA300222F
:100BD70050617373576F726400636F636F202020D7
:100BE7002000686170707920626972746864617945
:070BF700006572726F7200CD
:10098900120CB77BFF7A0B79D77D017F01120BFE21
:100999001208008F26E52660F7D3940A5043C3E571
:1009A900239407E522648094805028AE24AF257CE7
:1009B900007D0A120A928E248F25E52675F00A8495
:1009C900E5F02525F525E43524F5240523E52370EF
:1009D900020522750C03AB25AA247D017F02120CA6
:1009E9003FE526640B7053E525B42A2AE524B403B0
:1009F900257BFF7A0B79E07D017F01120BFE7BFFDE
:100A09007A0B79E97D017F02120BFEE4F524F525C5
:100A1900F522F52380247BFF7A0B79F87D017F028B
:100A2900120BFEE4F524F525F522F523750C08AB28
:100A390025AA247D017F02120C3FE526640C600380
:100A4900020999F524F525F522F523750C08AB253E
:0C0A5900AA247D017F02120C3F020999C3
:10080000E4F5087590FFC2932097137F14FE120C35
:100810008E3097FD7F147E00120C8E750801209695
:10082000147F147E00120C8E3096FD7F147E001211
:100830000C8E7508052095147F147E00120C8E30E6
:1008400095FD7F147E00120C8E7508092094147F8C
:10085000147E00120C8E3094FD7F147E00120C8EDC
:1008600075080D7590FFC2922097147F147E0012B8
:100870000C8E3097FD7F147E00120C8E75080220BE
:1008800096147F147E00120C8E3096FD7F147E002D
:10089000120C8E7508062095147F147E00120C8EA3
:1008A0003095FD7F147E00120C8E75080A2094147A
:1008B0007F147E00120C8E3094FD7F147E00120C8B
:1008C0008E75080E7590FFC2912097147F147E00DC
:1008D000120C8E3097FD7F147E00120C8E7508036B
:1008E0002096147F147E00120C8E3096FD7F147EAD
:1008F00000120C8E7508072095147F147E00120CD0
:100900008E3095FD7F147E00120C8E75080B20949E
:10091000147F147E00120C8E3094FD7F147E001222
:100920000C8E75080F7590FFC2902097147F147E6F
:1009300000120C8E3097FD7F147E00120C8E75080D
:10094000042096147F147E00120C8E3096FD7F14C6
:100950007E00120C8E7508082095147F147E0012FC
:100960000C8E3095FD7F147E00120C8E75080C20C5
:1009700094147F147E00120C8E3094FD7F147E0040
:08098000120C8E750810AF087F
:01098800224C
:0B0CD700EF1FAC0670011E4C70F622EF
:100C2100D3EF9400EE940040147D6E7C00ED1D70B6
:0D0C3100011CED4C70F7EF1F70E61E80E314
:010C3E002293
:100A6500BB010CE58229F582E5833AF583E0225046
:100A750006E92582F8E622BBFE06E92582F8E22290
:0D0A8500E58229F582E5833AF583E49322AA
:100A9200EF8DF0A4A8F0CF8CF0A428CE8DF0A42E78
:020AA200FE2232
:100AA400BC000BBE0029EF8DF084FFADF022E4CC36
:100AB400F875F008EF2FFFEE33FEEC33FCEE9DECFF
:100AC400984005FCEE9DFE0FD5F0E9E4CEFD22ED45
:100AD400F8F5F0EE8420D21CFEADF075F008EF2F8F
:100AE400FFED33FD4007985006D5F0F222C398FD80
:050AF4000FD5F0EA221D
:00000001FF
