:03000000020800F3
:0C080000787FE4F6D8FD758115020847EA
:1009A700EF1FAC0670011E4C600A7D027CEFDCFE77
:0409B700DDFC80ECF7
:0109BB002219
:1008F900E4F51520B1137F14FE1209A730B1FD7F6D
:10090900147E001209A775150120B0147F147E000A
:100919001209A730B0FD7F147E001209A7751502D0
:1009290020B2147F147E001209A730B2FD7F147E15
:10093900001209A775150320B3147F147E0012094C
:10094900A730B3FD7F147E001209A7751504AF15F2
:01095900227B
:0C09BC000A083F065B4F666D7D077F6FE9
:10088C00EF14B4080050549008A175F003A4C5836C
:10089C0025F0C583730208B90208BD0208C102081D
:1008AC00C50208C90208D10208D90208E1D2A48005
:1008BC000ED2A48012D2A48016D2A4801AC2A4D2C2
:1008CC00A3D2A28016C2A4D2A3C2A2800EC2A4C27A
:1008DC00A3D2A28006C2A4C2A3C2A274082DF8E6B9
:0D08EC00F5807FE87E031209A7E4F5802265
:0509C900007FE3DFFEEA
:0109CE002206
:10095A00AD07AC06E4F512F513ED25E0FFEC33FE26
:10096A00C3E5139FE5129E500FB2A51209C90513DC
:09097A00E51370E5051280E1228D
:10098300E4FDFC7F0112088C1208F98F14E5146052
:10099300F77FF47E0112095AE514FD7C007F0112F2
:0409A300088C80E458
:10080C00020983E493A3F8E493A34003F68001F276
:10081C0008DFF48029E493A3F85407240CC8C333ED
:10082C00C4540F4420C8834004F456800146F6DFBC
:10083C00E4800B01020408102040809009BCE47E87
:10084C00019360BCA3FF543F30E509541FFEE493B1
:10085C00A360010ECF54C025E060A840B8E493A378
:10086C00FAE493A3F8E493A3C8C582C8CAC583CAA3
:10087C00F0A3C8C582C8CAC583CADFE9DEE780BE5B
:0109C800002E
:00000001FF
