:03000000020A0BE6
:0C0A0B00787FE4F6D8FD75812A020A52BB
:100D5D0020202D20202D20200020203A20203A2058
:020D6D00200064
:100A9700120D49120DA77BFF7A0D795D7D017F014C
:100AA700120CA27BFF7A0D79667D017F02120CA2E0
:100AB70012080012097EE518FB7A00750C027D0109
:100AC7007F01120D01E519FB7A00750C027D047F89
:100AD70001120D01E51AFB7A00750C027D077F01F3
:100AE700120D01E51BFB7A00750C027D017F0212D6
:100AF7000D01E51CFB7A00750C027D047F02120DC7
:100B070001E51DFB7A00750C027D077F02120D01BE
:020B170080A1BB
:060D6F00C2A58F80D2A78F
:080D75007F027EEFDEFEDFFCD1
:010D7D002253
:0A0D8900C2A6120D6FC2A7020D757D
:100CC500CFCDCFCECCCE1209297C007D0A120929C1
:040CD500ED2430FFDB
:0A0CD900D2A6120D6FC2A7020D751E
:100D1E00AE07BE0104ED148006BE0209ED243F4469
:060D2E0080FF120D892276
:100D49007F38120D897F0C120D897F06120D897F5C
:040D590001020D89FD
:0A0D9300AC03120D1EAF04020CD9D0
:060CA2008B088A09890A93
:100CA800120D1EE4FDAB08AA09A90A8D82758300FE
:0C0CB8001208EAFF6006120CD90D80E95A
:010CC400220D
:0C0C6F007F0AEA24FFFDE434FFFC7E0055
:080C7B008E0D8F0E8C0F8D1001
:100C83007F017E00E4FBEBC39510E50F6480F874ED
:0E0C93008098500AAC0DAD0E1209170B80E8C8
:010CA1002230
:040D01008A0A8B0BC4
:100D0500120D1EAA0CEAD39400400D120C6FAC0A0A
:080D1500AD0B120CC51A80EDB4
:010D1D0022B3
:100BC400120D1EC3EA64809480400B7F2B120CD953
:100BD4008A168B17800E7F2D120CD9C3E49BF51750
:100BE400E49AF516AA15EAD39400400D120C6FACE2
:090BF40016AD17120CC51A80EDB4
:010BFD0022D5
:040BFE008A218B229B
:100C0200120D1EAA23EAD3940040297F10120C7100
:100C1200AC21AD22CFCDCFCECCCE120929EF540FCD
:100C2200FEC3940AEE5004243080022437FF120CD3
:040C3200D91A80D17A
:010C3600229B
:040C37008A268B2757
:100C3B00120D1EAA28EAD394004028EA24FFFDE4F3
:100C4B0034FFFC7F027E00120C7BAC26AD27CFCD90
:100C5B00CFCECCCE120929EF54012430FF120CD980
:030C6B001A80D21A
:010C6E002263
:090D9D00071817080A1634210694
:050DA700C2B5C2B62236
:060B190025F0FDEC3EFC9E
:060B1F008C088D09AB07F4
:100B2500D2B5E4FD74017E00A805088005C333CE67
:100B350033CED8F9FFEBF582EF558224FF92B4D27C
:100B4500B6C2B60DBD08DDE4FD74017E00A805083A
:100B55008005C333CE33CED8F9FFE5085EFEE5093F
:100B65005F4E24FF92B4D2B6C2B60DBD08DBC2B546
:010B7500225D
:020B7600AD07C9
:100B7800E4F9430501D2B5FB74017E00A80308809F
:100B880005C333CE33CED8F9FFEDF582EF55822475
:100B9800FF92B4C2B6D2B60BBB08DDE4FBD2B6C234
:100BA800B630B40D7401A803088002C333D8FC42E0
:0B0BB800010BBB08E8C2B5C2B4AF01DE
:010BC300220F
:10080000E4FDFC7F8E120B1FE51875F00A8475F06D
:1008100010A4FFAEF0E51875F00A84EF7F8C120B80
:1008200019E51975F00A8475F010A4FFAEF0E5190A
:1008300075F00A847C00EF7F88120B19E51A75F0B9
:100840000A8475F010A4FFAEF0E51A75F00A847CF6
:1008500000EF25F0FDEC3EFC7F86120B1FE51B75BB
:10086000F00A8475F010A4FFAEF0E51B75F00A8461
:100870007C00EF25F0FDEC3EFC7F84120B1FE51C95
:1008800075F00A8475F010A4FFAEF0E51C75F00A4F
:10089000847C00EF25F0FDEC3EFC7F82120B1FE50F
:1008A0001D75F00A8475F010A4FFAEF0E51D75F01B
:1008B0000A847C00EF25F0FDEC3EFC7F80120B1FCC
:1008C000E51E75F00A8475F010A4FFAEF0E51E7504
:1008D000F00A847C00EF25F0FDEC3EFC7F8A120BD1
:0A08E0001F7D807C007F8E020B1F3D
:10097E007F8C120B76EFC4540F75F00AA4FEEF5461
:10098E000F2EF5187F88120B76EFC4540F75F00AF0
:10099E00A4FEEF540F2EF5197F86120B76EFC4547A
:1009AE000F75F00AA4FEEF540F2EF51A7F84120B6A
:1009BE0076EFC4540F75F00AA4FEEF540F2EF51BFC
:1009CE007F82120B76EFC4540F75F00AA4FEEF541B
:1009DE000F2EF51C7F80120B76EFC4540F75F00AA4
:1009EE00A4FEEF540F2EF51D7F8A120B76EFC45422
:0C09FE000F75F00AA4FEEF540F2EF51E3A
:010A0A0022C9
:100D3400EF1FAC0670011E4C600A7D027CEFDCFEE6
:040D4400DDFC80EC66
:010D48002288
:0B0D7E00EF1FAC0670011E4C70F62247
:100CE300D3EF9400EE940040147D6E7C00ED1D70F4
:0D0CF300011CED4C70F7EF1F70E61E80E352
:010D000022D0
:100A1700020A97E493A3F8E493A34003F68001F254
:100A270008DFF48029E493A3F85407240CC8C333E0
:100A3700C4540F4420C8834004F456800146F6DFAF
:100A4700E4800B0102040810204080900D9DE47E95
:100A5700019360BCA3FF543F30E509541FFEE493A4
:100A6700A360010ECF54C025E060A840B8E493A36B
:100A7700FAE493A3F8E493A3C8C582C8CAC583CA96
:100A8700F0A3C8C582C8CAC583CADFE9DEE780BE4E
:010DA600004C
:1008EA00BB010CE58229F582E5833AF583E02250C3
:1008FA0006E92582F8E622BBFE06E92582F8E2220D
:0D090A00E58229F582E5833AF583E4932226
:10091700EF8DF0A4A8F0CF8CF0A428CE8DF0A42EF4
:02092700FE22AE
:10092900BC000BBE0029EF8DF084FFADF022E4CCB2
:10093900F875F008EF2FFFEE33FEEC33FCEE9DEC7B
:10094900984005FCEE9DFE0FD5F0E9E4CEFD22EDC1
:10095900F8F5F0EE8420D21CFEADF075F008EF2F0B
:10096900FFED33FD4007985006D5F0F222C398FDFC
:050979000FD5F0EA2299
:00000001FF
