:03000000020B18D8
:0C0B1800787FE4F6D8FD75812302090205
:0D0B0B0041444A20204E5443202052470010
:10090200120AF77BFF7A0B790B7D017F01120A3EF7
:100912007F9C1208948E228F23750C03AB23AA228C
:100922007D017F02120A7F7FDC1208948E228F23C0
:10093200750C03AB23AA227D067F02120A7F7FACCD
:100942001208948E228F23750C03AB23AA227D0BEF
:0E0952007F02120A7F7F0A7E00120ACE80B258
:100ACE00EF1FAC0670011E4C600A7D027CEFDCFE4F
:040ADE00DDFC80ECCF
:010AE20022F1
:0B0AE300C2A5C2A78F80120AEED2A7A6
:080AEE007F027EEFDEFEDFFC5B
:010AF60022DD
:080B3900C2A6120AE3C2A722C2
:100A9C00CFCDCFCECCCE12083F7C007D0A12083FC2
:040AAC00ED2430FF06
:080AB000D2A6120AE3C2A7223C
:100AB800AE07BE0104ED148006BE0209ED243F44D2
:060AC80080FF120B392231
:100AF7007F38120B397F0C120B397F06120B397FA7
:040B070001020B39A3
:0A0B2F00AC03120AB8AF04020AB0CA
:060A3E008B088A09890AF9
:100A4400120AB8E4FDAB08AA09A90A8D82758300CD
:0C0A5400120800FF6006120AB00D80E9D5
:010A60002273
:0C0A0B007F0AEA24FFFDE434FFFC7E00BB
:080A17008E0D8F0E8C0F8D1067
:100A1F007F017E00E4FBEBC39510E50F6480F87453
:0E0A2F008098500AAC0DAD0E12082D0B80E819
:010A3D002296
:040A7F008A0A8B0B49
:100A8300120AB8AA0CEAD39400400D120A0BAC0A5E
:080A9300AD0B120A9C1A80ED64
:010A9B002238
:10096000120AB8C3EA64809480400B7F2B120AB04D
:100970008A168B17800E7F2D120AB0C3E49BF517E1
:10098000E49AF516AA15EAD39400400D120A0BACAE
:0909900016AD17120A9C1A80ED45
:01099900223B
:04099A008A1A8B1B0F
:10099E00120AB8AA1CEAD3940040297F10120A0D3D
:1009AE00AC1AAD1BCFCDCFCECCCE12083FEF540F2D
:1009BE00FEC3940AEE5004243080022437FF120A3C
:0409CE00B01A80D10A
:0109D2002202
:0409D3008A1F8B20CC
:1009D700120AB8AA21EAD394004028EA24FFFDE4CA
:1009E70034FFFC7F027E00120A17AC1FAD20CFCD6B
:1009F700CFCECCCE12083FEF54012430FF120AB0FD
:030A07001A80D280
:010A0A0022C9
:0B0B2400EF1FAC0670011E4C70F622A3
:100A6100D3EF9400EE940040147D6E7C00ED1D7078
:0D0A7100011CED4C70F7EF1F70E61E80E3D6
:010A7E002255
:02089400AD07AE
:10089600E4F508F509C2B6C2B5FB74807E00A8036C
:1008A600088006CEA2E713CE13D8F8FFEDF582EF47
:1008B600558224FF92B4D2B6C2B60BBB08DCE4FB69
:1008C600D2B6C2B630B714E47E80A803088005CE3F
:1008D600C313CE13D8F94209EE42080BBB10E1D27E
:1008E600B5ED30E306E508FF7E0022E508C4F854BE
:0B08F600F0C868FEE509C4540F48FF7D
:0109010022D3
:10080000BB010CE58229F582E5833AF583E02250AD
:1008100006E92582F8E622BBFE06E92582F8E222F7
:0D082000E58229F582E5833AF583E4932211
:10082D00EF8DF0A4A8F0CF8CF0A428CE8DF0A42EDF
:02083D00FE2299
:10083F00BC000BBE0029EF8DF084FFADF022E4CC9D
:10084F00F875F008EF2FFFEE33FEEC33FCEE9DEC66
:10085F00984005FCEE9DFE0FD5F0E9E4CEFD22EDAC
:10086F00F8F5F0EE8420D21CFEADF075F008EF2FF6
:10087F00FFED33FD4007985006D5F0F222C398FDE7
:05088F000FD5F0EA2284
:00000001FF
