:030000000208777C
:0C087700787FE4F6D8FD75810802088B3C
:10086200EF1FAC0670011E4C600A7D027CEFDCFEBD
:04087200DDFC80EC3D
:01087600225F
:05088B0012084780FE89
:03002300020800D0
:10080000C0E0C0F0C083C082C0D075D000C000C0BE
:1008100001C002C003C004C005C006C00730980C68
:10082000E599F4F5A0AF99120883C298D007D006D5
:10083000D005D004D003D002D001D000D0D0D082D7
:07084000D083D0F0D0E032BC
:1008470053877F75985053890F438920758BFA75A5
:0B0857008DFAC2ABD28ED2AFD2AC2221
:080883008F993099FDC2992202
:00000001FF
