:03000000020C816E
:0C0C8100787FE4F6D8FD75812602098911
:100C140050617373576F7264007765696B656B65B8
:0A0C2400207362006572726F7200A7
:10098900120C6D7BFF7A0C79147D017F01120BB873
:100999001208008F1CE51C60F7D3940A5041C3E587
:1009A900199404E51894005028AE1AAF1B7C007DF9
:1009B9000A120A738E1A8F1BE51C75F00A84E5F07A
:1009C900251BF51BE4351AF51A0519E519700205F9
:1009D90018750C04AB1BAA1A7D017F02120BDBE50B
:1009E9001C640B7036E51BB4290DE51AB409087BA4
:1009F900FF7A0C791D80067BFF7A0C79287D077FA9
:100A090002120BB8E4F51AF51BF518F519750C0463
:100A1900AB1BAA1A7D017F02120BDBE51C640C607B
:100A290003020999F51AF51BF518F519750C04ABAC
:0D0A39001BAA1A7D017F02120BDB02099936
:0B0C5900C2A5C2A78F80120C64D2A7B6
:080C64007F027EEFDEFEDFFCE3
:010C6C002265
:080C9700C2A6120C59C2A722EB
:100BF800CFCDCFCECCCE120A857C007D0A120A85D5
:040C0800ED2430FFA8
:080C0C00D2A6120C59C2A72266
:100C2E00AE07BE0104ED148006BE0209ED243F445A
:060C3E0080FF120C97225A
:100C6D007F38120C977F0C120C977F06120C977F12
:040C7D0001020C97CD
:0A0C8D00AC03120C2EAF04020C0C95
:060BB8008B088A09890A7E
:100BBE00120C2EE4FDAB08AA09A90A8D82758300DA
:0C0BCE00120A46FF6006120C0C0D80E9B4
:010BDA0022F8
:0C0B85007F0AEA24FFFDE434FFFC7E0040
:080B91008E0D8F0E8C0F8D10EC
:100B99007F017E00E4FBEBC39510E50F6480F874D8
:0E0BA9008098500AAC0DAD0E120A730B80E856
:010BB700221B
:040BDB008A0A8B0BEC
:100BDF00120C2EAA0CEAD39400400D120B85AC0A0E
:080BEF00AD0B120BF81A80EDAA
:010BF70022DB
:100ADA00120C2EC3EA64809480400B7F2B120C0CFC
:100AEA008A168B17800E7F2D120C0CC3E49BF51708
:100AFA00E49AF516AA15EAD39400400D120B85ACB8
:090B0A0016AD17120BF81A80ED6C
:010B130022BF
:040B14008A1F8B2089
:100B1800120C2EAA21EAD3940040297F10120B87C9
:100B2800AC1FAD20CFCDCFCECCCE120A85EF540F5F
:100B3800FEC3940AEE5004243080022437FF120CBE
:040B48000C1A80D132
:010B4C002286
:040B4D008A248B2546
:100B5100120C2EAA26EAD394004028EA24FFFDE4D1
:100B610034FFFC7F027E00120B91AC24AD25CFCD6A
:100B7100CFCECCCE120A85EF54012430FF120C0CDB
:030B81001A80D205
:010B8400224E
:10080000E4F5087590FFC2932097137F14FE120C35
:10081000443097FD7F147E00120C44750801209629
:10082000147F147E00120C443096FD7F147E00125B
:100830000C447508052095147F147E00120C44307A
:1008400095FD7F147E00120C447508092094147FD6
:10085000147E00120C443094FD7F147E00120C4470
:1008600075080D7590FFC2922097147F147E0012B8
:100870000C443097FD7F147E00120C447508022052
:1008800096147F147E00120C443096FD7F147E0077
:10089000120C447508062095147F147E00120C4437
:1008A0003095FD7F147E00120C4475080A209414C4
:1008B0007F147E00120C443094FD7F147E00120CD5
:1008C0004475080E7590FFC2912097147F147E0026
:1008D000120C443097FD7F147E00120C44750803FF
:1008E0002096147F147E00120C443096FD7F147EF7
:1008F00000120C447508072095147F147E00120C1A
:10090000443095FD7F147E00120C4475080B209432
:10091000147F147E00120C443094FD7F147E00126C
:100920000C4475080F7590FFC2902097147F147EB9
:1009300000120C443097FD7F147E00120C447508A1
:10094000042096147F147E00120C443096FD7F1410
:100950007E00120C447508082095147F147E001246
:100960000C443095FD7F147E00120C4475080C2059
:1009700094147F147E00120C443094FD7F147E008A
:08098000120C44750810AF08C9
:01098800224C
:100C4400EF1FAC0670011E4C600A7D027CEFDCFED7
:040C5400DDFC80EC57
:010C58002279
:100A4600BB010CE58229F582E5833AF583E0225065
:100A560006E92582F8E622BBFE06E92582F8E222AF
:0D0A6600E58229F582E5833AF583E49322C9
:100A7300EF8DF0A4A8F0CF8CF0A428CE8DF0A42E97
:020A8300FE2251
:100A8500BC000BBE0029EF8DF084FFADF022E4CC55
:100A9500F875F008EF2FFFEE33FEEC33FCEE9DEC1E
:100AA500984005FCEE9DFE0FD5F0E9E4CEFD22ED64
:100AB500F8F5F0EE8420D21CFEADF075F008EF2FAE
:100AC500FFED33FD4007985006D5F0F222C398FD9F
:050AD5000FD5F0EA223C
:00000001FF
