:030000000208B241
:0C08B200787FE4F6D8FD7581070208008D
:02084E00AD07F4
:10085000E4FB74807E00A803088006CEA2E713CED6
:1008600013D8F8FFEDF582EF558224FF92B4D2B68B
:0A087000C2B60BBB08DCD2B5C2B55E
:01087A00225B
:10087B00AA07AF0512084EAF027480A807088002C2
:10088B00C313D8FCF4F5807F017E0012089D7580A0
:02089B00FF223A
:10080000C2B6C2B57D3C7C00E4FF12087B7D427C11
:10081000007F0112087B7DA97C007F0212087B7D8E
:10082000857C007F0312087B7D857C007F04120895
:100830007B7DA97C007F0512087B7D427C007F06C2
:0E08400012087B7D3C7C007F0712087B80B68F
:10089D00EF1FAC0670011E4C600A7D027CEFDCFE82
:0408AD00DDFC80EC02
:0108B1002224
:00000001FF
